{
  "contractName": "PixelGlyphs",
  "abi": [
    {
      "inputs": [
        {
          "internalType": "address",
          "name": "signer",
          "type": "address"
        },
        {
          "internalType": "string",
          "name": "baseUri",
          "type": "string"
        }
      ],
      "stateMutability": "nonpayable",
      "type": "constructor"
    },
    {
      "anonymous": false,
      "inputs": [
        {
          "indexed": true,
          "internalType": "address",
          "name": "owner",
          "type": "address"
        },
        {
          "indexed": true,
          "internalType": "address",
          "name": "approved",
          "type": "address"
        },
        {
          "indexed": true,
          "internalType": "uint256",
          "name": "tokenId",
          "type": "uint256"
        }
      ],
      "name": "Approval",
      "type": "event"
    },
    {
      "anonymous": false,
      "inputs": [
        {
          "indexed": true,
          "internalType": "address",
          "name": "owner",
          "type": "address"
        },
        {
          "indexed": true,
          "internalType": "address",
          "name": "operator",
          "type": "address"
        },
        {
          "indexed": false,
          "internalType": "bool",
          "name": "approved",
          "type": "bool"
        }
      ],
      "name": "ApprovalForAll",
      "type": "event"
    },
    {
      "anonymous": false,
      "inputs": [
        {
          "indexed": true,
          "internalType": "uint256",
          "name": "tokenId",
          "type": "uint256"
        },
        {
          "indexed": false,
          "internalType": "uint256[5][10]",
          "name": "glyph",
          "type": "uint256[5][10]"
        },
        {
          "indexed": false,
          "internalType": "uint256[3][3]",
          "name": "colors",
          "type": "uint256[3][3]"
        }
      ],
      "name": "Created",
      "type": "event"
    },
    {
      "anonymous": false,
      "inputs": [
        {
          "indexed": true,
          "internalType": "address",
          "name": "owner",
          "type": "address"
        },
        {
          "indexed": false,
          "internalType": "uint256",
          "name": "tokenId",
          "type": "uint256"
        }
      ],
      "name": "Equip",
      "type": "event"
    },
    {
      "anonymous": false,
      "inputs": [
        {
          "indexed": true,
          "internalType": "uint256",
          "name": "tokenId",
          "type": "uint256"
        },
        {
          "indexed": false,
          "internalType": "string",
          "name": "name",
          "type": "string"
        }
      ],
      "name": "Named",
      "type": "event"
    },
    {
      "anonymous": false,
      "inputs": [
        {
          "indexed": true,
          "internalType": "address",
          "name": "previousOwner",
          "type": "address"
        },
        {
          "indexed": true,
          "internalType": "address",
          "name": "newOwner",
          "type": "address"
        }
      ],
      "name": "OwnershipTransferred",
      "type": "event"
    },
    {
      "anonymous": false,
      "inputs": [
        {
          "indexed": true,
          "internalType": "address",
          "name": "from",
          "type": "address"
        },
        {
          "indexed": true,
          "internalType": "address",
          "name": "to",
          "type": "address"
        },
        {
          "indexed": true,
          "internalType": "uint256",
          "name": "tokenId",
          "type": "uint256"
        }
      ],
      "name": "Transfer",
      "type": "event"
    },
    {
      "inputs": [],
      "name": "PRICE_PER_MINT",
      "outputs": [
        {
          "internalType": "uint256",
          "name": "",
          "type": "uint256"
        }
      ],
      "stateMutability": "view",
      "type": "function",
      "constant": true
    },
    {
      "inputs": [],
      "name": "PRICE_PER_NAME",
      "outputs": [
        {
          "internalType": "uint256",
          "name": "",
          "type": "uint256"
        }
      ],
      "stateMutability": "view",
      "type": "function",
      "constant": true
    },
    {
      "inputs": [
        {
          "internalType": "address",
          "name": "to",
          "type": "address"
        },
        {
          "internalType": "uint256",
          "name": "tokenId",
          "type": "uint256"
        }
      ],
      "name": "approve",
      "outputs": [],
      "stateMutability": "nonpayable",
      "type": "function"
    },
    {
      "inputs": [
        {
          "internalType": "address",
          "name": "owner",
          "type": "address"
        }
      ],
      "name": "balanceOf",
      "outputs": [
        {
          "internalType": "uint256",
          "name": "",
          "type": "uint256"
        }
      ],
      "stateMutability": "view",
      "type": "function",
      "constant": true
    },
    {
      "inputs": [
        {
          "internalType": "address",
          "name": "",
          "type": "address"
        }
      ],
      "name": "equipped",
      "outputs": [
        {
          "internalType": "uint256",
          "name": "",
          "type": "uint256"
        }
      ],
      "stateMutability": "view",
      "type": "function",
      "constant": true
    },
    {
      "inputs": [
        {
          "internalType": "uint256",
          "name": "tokenId",
          "type": "uint256"
        }
      ],
      "name": "getApproved",
      "outputs": [
        {
          "internalType": "address",
          "name": "",
          "type": "address"
        }
      ],
      "stateMutability": "view",
      "type": "function",
      "constant": true
    },
    {
      "inputs": [
        {
          "internalType": "address",
          "name": "owner",
          "type": "address"
        },
        {
          "internalType": "address",
          "name": "operator",
          "type": "address"
        }
      ],
      "name": "isApprovedForAll",
      "outputs": [
        {
          "internalType": "bool",
          "name": "",
          "type": "bool"
        }
      ],
      "stateMutability": "view",
      "type": "function",
      "constant": true
    },
    {
      "inputs": [],
      "name": "name",
      "outputs": [
        {
          "internalType": "string",
          "name": "",
          "type": "string"
        }
      ],
      "stateMutability": "view",
      "type": "function",
      "constant": true
    },
    {
      "inputs": [
        {
          "internalType": "uint256",
          "name": "",
          "type": "uint256"
        }
      ],
      "name": "names",
      "outputs": [
        {
          "internalType": "string",
          "name": "",
          "type": "string"
        }
      ],
      "stateMutability": "view",
      "type": "function",
      "constant": true
    },
    {
      "inputs": [],
      "name": "namingBlockEnd",
      "outputs": [
        {
          "internalType": "uint256",
          "name": "",
          "type": "uint256"
        }
      ],
      "stateMutability": "view",
      "type": "function",
      "constant": true
    },
    {
      "inputs": [],
      "name": "namingBlockStart",
      "outputs": [
        {
          "internalType": "uint256",
          "name": "",
          "type": "uint256"
        }
      ],
      "stateMutability": "view",
      "type": "function",
      "constant": true
    },
    {
      "inputs": [],
      "name": "owner",
      "outputs": [
        {
          "internalType": "address",
          "name": "",
          "type": "address"
        }
      ],
      "stateMutability": "view",
      "type": "function",
      "constant": true
    },
    {
      "inputs": [
        {
          "internalType": "uint256",
          "name": "tokenId",
          "type": "uint256"
        }
      ],
      "name": "ownerOf",
      "outputs": [
        {
          "internalType": "address",
          "name": "",
          "type": "address"
        }
      ],
      "stateMutability": "view",
      "type": "function",
      "constant": true
    },
    {
      "inputs": [],
      "name": "renounceOwnership",
      "outputs": [],
      "stateMutability": "nonpayable",
      "type": "function"
    },
    {
      "inputs": [
        {
          "internalType": "address",
          "name": "from",
          "type": "address"
        },
        {
          "internalType": "address",
          "name": "to",
          "type": "address"
        },
        {
          "internalType": "uint256",
          "name": "tokenId",
          "type": "uint256"
        }
      ],
      "name": "safeTransferFrom",
      "outputs": [],
      "stateMutability": "nonpayable",
      "type": "function"
    },
    {
      "inputs": [
        {
          "internalType": "address",
          "name": "from",
          "type": "address"
        },
        {
          "internalType": "address",
          "name": "to",
          "type": "address"
        },
        {
          "internalType": "uint256",
          "name": "tokenId",
          "type": "uint256"
        },
        {
          "internalType": "bytes",
          "name": "_data",
          "type": "bytes"
        }
      ],
      "name": "safeTransferFrom",
      "outputs": [],
      "stateMutability": "nonpayable",
      "type": "function"
    },
    {
      "inputs": [
        {
          "internalType": "address",
          "name": "operator",
          "type": "address"
        },
        {
          "internalType": "bool",
          "name": "approved",
          "type": "bool"
        }
      ],
      "name": "setApprovalForAll",
      "outputs": [],
      "stateMutability": "nonpayable",
      "type": "function"
    },
    {
      "inputs": [
        {
          "internalType": "bytes4",
          "name": "interfaceId",
          "type": "bytes4"
        }
      ],
      "name": "supportsInterface",
      "outputs": [
        {
          "internalType": "bool",
          "name": "",
          "type": "bool"
        }
      ],
      "stateMutability": "view",
      "type": "function",
      "constant": true
    },
    {
      "inputs": [],
      "name": "symbol",
      "outputs": [
        {
          "internalType": "string",
          "name": "",
          "type": "string"
        }
      ],
      "stateMutability": "view",
      "type": "function",
      "constant": true
    },
    {
      "inputs": [
        {
          "internalType": "uint256",
          "name": "index",
          "type": "uint256"
        }
      ],
      "name": "tokenByIndex",
      "outputs": [
        {
          "internalType": "uint256",
          "name": "",
          "type": "uint256"
        }
      ],
      "stateMutability": "view",
      "type": "function",
      "constant": true
    },
    {
      "inputs": [
        {
          "internalType": "address",
          "name": "owner",
          "type": "address"
        },
        {
          "internalType": "uint256",
          "name": "index",
          "type": "uint256"
        }
      ],
      "name": "tokenOfOwnerByIndex",
      "outputs": [
        {
          "internalType": "uint256",
          "name": "",
          "type": "uint256"
        }
      ],
      "stateMutability": "view",
      "type": "function",
      "constant": true
    },
    {
      "inputs": [
        {
          "internalType": "uint256",
          "name": "tokenId",
          "type": "uint256"
        }
      ],
      "name": "tokenURI",
      "outputs": [
        {
          "internalType": "string",
          "name": "",
          "type": "string"
        }
      ],
      "stateMutability": "view",
      "type": "function",
      "constant": true
    },
    {
      "inputs": [],
      "name": "totalSupply",
      "outputs": [
        {
          "internalType": "uint256",
          "name": "",
          "type": "uint256"
        }
      ],
      "stateMutability": "view",
      "type": "function",
      "constant": true
    },
    {
      "inputs": [
        {
          "internalType": "address",
          "name": "from",
          "type": "address"
        },
        {
          "internalType": "address",
          "name": "to",
          "type": "address"
        },
        {
          "internalType": "uint256",
          "name": "tokenId",
          "type": "uint256"
        }
      ],
      "name": "transferFrom",
      "outputs": [],
      "stateMutability": "nonpayable",
      "type": "function"
    },
    {
      "inputs": [
        {
          "internalType": "address",
          "name": "newOwner",
          "type": "address"
        }
      ],
      "name": "transferOwnership",
      "outputs": [],
      "stateMutability": "nonpayable",
      "type": "function"
    },
    {
      "inputs": [
        {
          "internalType": "uint256",
          "name": "tokenId",
          "type": "uint256"
        },
        {
          "internalType": "string",
          "name": "name",
          "type": "string"
        }
      ],
      "name": "nameGlyph",
      "outputs": [],
      "stateMutability": "payable",
      "type": "function",
      "payable": true
    },
    {
      "inputs": [
        {
          "internalType": "uint256",
          "name": "blockNumber",
          "type": "uint256"
        }
      ],
      "name": "setNamingBlock",
      "outputs": [],
      "stateMutability": "nonpayable",
      "type": "function"
    },
    {
      "inputs": [
        {
          "internalType": "uint256[]",
          "name": "seed",
          "type": "uint256[]"
        },
        {
          "internalType": "uint256[]",
          "name": "cSeed",
          "type": "uint256[]"
        },
        {
          "internalType": "bytes32",
          "name": "uuid",
          "type": "bytes32"
        },
        {
          "internalType": "uint256",
          "name": "timestamp",
          "type": "uint256"
        },
        {
          "internalType": "bytes",
          "name": "sig",
          "type": "bytes"
        },
        {
          "internalType": "address",
          "name": "to",
          "type": "address"
        }
      ],
      "name": "mintTo",
      "outputs": [],
      "stateMutability": "nonpayable",
      "type": "function"
    },
    {
      "inputs": [
        {
          "internalType": "string",
          "name": "baseUri",
          "type": "string"
        }
      ],
      "name": "setBaseUri",
      "outputs": [],
      "stateMutability": "nonpayable",
      "type": "function"
    },
    {
      "inputs": [
        {
          "internalType": "uint256[][]",
          "name": "seeds",
          "type": "uint256[][]"
        },
        {
          "internalType": "uint256[][]",
          "name": "cSeeds",
          "type": "uint256[][]"
        },
        {
          "internalType": "bytes32[]",
          "name": "uuids",
          "type": "bytes32[]"
        },
        {
          "internalType": "uint256",
          "name": "timestamp",
          "type": "uint256"
        },
        {
          "internalType": "bytes[]",
          "name": "sigs",
          "type": "bytes[]"
        }
      ],
      "name": "mint",
      "outputs": [],
      "stateMutability": "payable",
      "type": "function",
      "payable": true
    },
    {
      "inputs": [
        {
          "internalType": "uint256",
          "name": "tokenId",
          "type": "uint256"
        }
      ],
      "name": "equip",
      "outputs": [],
      "stateMutability": "nonpayable",
      "type": "function"
    },
    {
      "inputs": [
        {
          "internalType": "address",
          "name": "sendTo",
          "type": "address"
        }
      ],
      "name": "withdraw",
      "outputs": [],
      "stateMutability": "nonpayable",
      "type": "function"
    },
    {
      "inputs": [
        {
          "internalType": "address",
          "name": "signer",
          "type": "address"
        }
      ],
      "name": "updateSigner",
      "outputs": [],
      "stateMutability": "nonpayable",
      "type": "function"
    },
    {
      "inputs": [
        {
          "internalType": "uint256",
          "name": "price",
          "type": "uint256"
        }
      ],
      "name": "updatePricePerMint",
      "outputs": [],
      "stateMutability": "nonpayable",
      "type": "function"
    },
    {
      "inputs": [
        {
          "internalType": "bytes",
          "name": "str",
          "type": "bytes"
        }
      ],
      "name": "setGenerationString",
      "outputs": [],
      "stateMutability": "nonpayable",
      "type": "function"
    }
  ],
  "bytecode": "0x6080604052600a600b556000600c55661ff973cafa8000600e556608e1bc9bf04000600f553480156200003157600080fd5b50604051620064c2380380620064c2833981810160405281019062000057919062000380565b6040518060400160405280600b81526020017f506978656c476c797068730000000000000000000000000000000000000000008152506040518060400160405280600381526020017f50784700000000000000000000000000000000000000000000000000000000008152508160009080519060200190620000db92919062000247565b508060019080519060200190620000f492919062000247565b505050620001176200010b6200017960201b60201c565b6200018160201b60201c565b81600d60006101000a81548173ffffffffffffffffffffffffffffffffffffffff021916908373ffffffffffffffffffffffffffffffffffffffff16021790555080601090805190602001906200017092919062000247565b50505062000559565b600033905090565b6000600a60009054906101000a900473ffffffffffffffffffffffffffffffffffffffff16905081600a60006101000a81548173ffffffffffffffffffffffffffffffffffffffff021916908373ffffffffffffffffffffffffffffffffffffffff1602179055508173ffffffffffffffffffffffffffffffffffffffff168173ffffffffffffffffffffffffffffffffffffffff167f8be0079c531659141344cd1fd0a4f28419497f9722a3daafe3b4186f6b6457e060405160405180910390a35050565b8280546200025590620004ab565b90600052602060002090601f016020900481019282620002795760008555620002c5565b82601f106200029457805160ff1916838001178555620002c5565b82800160010185558215620002c5579182015b82811115620002c4578251825591602001919060010190620002a7565b5b509050620002d49190620002d8565b5090565b5b80821115620002f3576000816000905550600101620002d9565b5090565b60006200030e62000308846200040e565b620003da565b9050828152602081018484840111156200032757600080fd5b6200033484828562000475565b509392505050565b6000815190506200034d816200053f565b92915050565b600082601f8301126200036557600080fd5b815162000377848260208601620002f7565b91505092915050565b600080604083850312156200039457600080fd5b6000620003a4858286016200033c565b925050602083015167ffffffffffffffff811115620003c257600080fd5b620003d08582860162000353565b9150509250929050565b6000604051905081810181811067ffffffffffffffff8211171562000404576200040362000510565b5b8060405250919050565b600067ffffffffffffffff8211156200042c576200042b62000510565b5b601f19601f8301169050602081019050919050565b60006200044e8262000455565b9050919050565b600073ffffffffffffffffffffffffffffffffffffffff82169050919050565b60005b838110156200049557808201518184015260208101905062000478565b83811115620004a5576000848401525b50505050565b60006002820490506001821680620004c457607f821691505b60208210811415620004db57620004da620004e1565b5b50919050565b7f4e487b7100000000000000000000000000000000000000000000000000000000600052602260045260246000fd5b7f4e487b7100000000000000000000000000000000000000000000000000000000600052604160045260246000fd5b6200054a8162000441565b81146200055657600080fd5b50565b615f5980620005696000396000f3fe6080604052600436106102345760003560e01c806370a082311161013857806395d89b41116100b0578063b85f80271161007f578063c87b56dd11610064578063c87b56dd146107dd578063e985e9c51461081a578063f2fde38b1461085757610234565b8063b85f80271461078b578063b88d4fde146107b457610234565b806395d89b41146106e5578063a0bcfc7f14610710578063a22cb46514610739578063a7ecd37e1461076257610234565b806386b8703b116101075780638d4edb0a116100ec5780638d4edb0a146106645780638da5cb5b1461068f57806394b29423146106ba57610234565b806386b8703b146106105780638c7cb41e1461063b57610234565b806370a0823114610568578063715018a6146105a5578063758e8fb5146105bc5780637c2fbe09146105e757610234565b80632f745c59116101cb5780634a66458a1161019a57806351cff8d91161017f57806351cff8d9146104e657806353c981311461050f5780636352211e1461052b57610234565b80634a66458a1461046c5780634f6ccce7146104a957610234565b80632f745c59146103a057806342842e0e146103dd5780634622ab031461040657806348e629df1461044357610234565b806318160ddd1161020757806318160ddd1461030757806323b872dd14610332578063244574c01461035b5780632a9dcd091461037757610234565b806301ffc9a71461023957806306fdde0314610276578063081812fc146102a1578063095ea7b3146102de575b600080fd5b34801561024557600080fd5b50610260600480360381019061025b91906144ec565b610880565b60405161026d919061548c565b60405180910390f35b34801561028257600080fd5b5061028b6108fa565b6040516102989190615507565b60405180910390f35b3480156102ad57600080fd5b506102c860048036038101906102c391906145c4565b61098c565b6040516102d591906153fa565b60405180910390f35b3480156102ea57600080fd5b5061030560048036038101906103009190614308565b610a11565b005b34801561031357600080fd5b5061031c610b29565b60405161032991906158a9565b60405180910390f35b34801561033e57600080fd5b5061035960048036038101906103549190614202565b610b36565b005b61037560048036038101906103709190614344565b610b96565b005b34801561038357600080fd5b5061039e6004803603810190610399919061441b565b610e01565b005b3480156103ac57600080fd5b506103c760048036038101906103c29190614308565b610e93565b6040516103d491906158a9565b60405180910390f35b3480156103e957600080fd5b5061040460048036038101906103ff9190614202565b610f38565b005b34801561041257600080fd5b5061042d600480360381019061042891906145c4565b610f58565b60405161043a9190615507565b60405180910390f35b34801561044f57600080fd5b5061046a600480360381019061046591906145c4565b610ff8565b005b34801561047857600080fd5b50610493600480360381019061048e919061419d565b61107e565b6040516104a091906158a9565b60405180910390f35b3480156104b557600080fd5b506104d060048036038101906104cb91906145c4565b611096565b6040516104dd91906158a9565b60405180910390f35b3480156104f257600080fd5b5061050d6004803603810190610508919061419d565b61112d565b005b610529600480360381019061052491906145ed565b6111f9565b005b34801561053757600080fd5b50610552600480360381019061054d91906145c4565b6112c8565b60405161055f91906153fa565b60405180910390f35b34801561057457600080fd5b5061058f600480360381019061058a919061419d565b61137a565b60405161059c91906158a9565b60405180910390f35b3480156105b157600080fd5b506105ba611432565b005b3480156105c857600080fd5b506105d16114ba565b6040516105de91906158a9565b60405180910390f35b3480156105f357600080fd5b5061060e6004803603810190610609919061453e565b6114c0565b005b34801561061c57600080fd5b50610625611540565b60405161063291906158a9565b60405180910390f35b34801561064757600080fd5b50610662600480360381019061065d91906145c4565b611546565b005b34801561067057600080fd5b50610679611625565b60405161068691906158a9565b60405180910390f35b34801561069b57600080fd5b506106a461162b565b6040516106b191906153fa565b60405180910390f35b3480156106c657600080fd5b506106cf611655565b6040516106dc91906158a9565b60405180910390f35b3480156106f157600080fd5b506106fa61165b565b6040516107079190615507565b60405180910390f35b34801561071c57600080fd5b5061073760048036038101906107329190614583565b6116ed565b005b34801561074557600080fd5b50610760600480360381019061075b91906142cc565b611783565b005b34801561076e57600080fd5b506107896004803603810190610784919061419d565b611904565b005b34801561079757600080fd5b506107b260048036038101906107ad91906145c4565b6119c4565b005b3480156107c057600080fd5b506107db60048036038101906107d69190614251565b611acf565b005b3480156107e957600080fd5b5061080460048036038101906107ff91906145c4565b611b31565b6040516108119190615507565b60405180910390f35b34801561082657600080fd5b50610841600480360381019061083c91906141c6565b611bd8565b60405161084e919061548c565b60405180910390f35b34801561086357600080fd5b5061087e6004803603810190610879919061419d565b611c6c565b005b60007f780e9d63000000000000000000000000000000000000000000000000000000007bffffffffffffffffffffffffffffffffffffffffffffffffffffffff1916827bffffffffffffffffffffffffffffffffffffffffffffffffffffffff191614806108f357506108f282611d64565b5b9050919050565b60606000805461090990615d23565b80601f016020809104026020016040519081016040528092919081815260200182805461093590615d23565b80156109825780601f1061095757610100808354040283529160200191610982565b820191906000526020600020905b81548152906001019060200180831161096557829003601f168201915b5050505050905090565b600061099782611e46565b6109d6576040517f08c379a00000000000000000000000000000000000000000000000000000000081526004016109cd90615769565b60405180910390fd5b6004600083815260200190815260200160002060009054906101000a900473ffffffffffffffffffffffffffffffffffffffff169050919050565b6000610a1c826112c8565b90508073ffffffffffffffffffffffffffffffffffffffff168373ffffffffffffffffffffffffffffffffffffffff161415610a8d576040517f08c379a0000000000000000000000000000000000000000000000000000000008152600401610a8490615809565b60405180910390fd5b8073ffffffffffffffffffffffffffffffffffffffff16610aac611eb2565b73ffffffffffffffffffffffffffffffffffffffff161480610adb5750610ada81610ad5611eb2565b611bd8565b5b610b1a576040517f08c379a0000000000000000000000000000000000000000000000000000000008152600401610b1190615689565b60405180910390fd5b610b248383611eba565b505050565b6000600880549050905090565b610b47610b41611eb2565b82611f73565b610b86576040517f08c379a0000000000000000000000000000000000000000000000000000000008152600401610b7d90615849565b60405180910390fd5b610b91838383612051565b505050565b8351855114610bda576040517f08c379a0000000000000000000000000000000000000000000000000000000008152600401610bd190615669565b60405180910390fd5b8451835114610c1e576040517f08c379a0000000000000000000000000000000000000000000000000000000008152600401610c1590615669565b60405180910390fd5b8451815114610c62576040517f08c379a0000000000000000000000000000000000000000000000000000000008152600401610c5990615669565b60405180910390fd5b8451600e54610c719190615bb6565b3414610cb2576040517f08c379a0000000000000000000000000000000000000000000000000000000008152600401610ca990615829565b60405180910390fd5b61546082610cc09190615b2f565b421115610ccc57600080fd5b60005b8551811015610df957610de6868281518110610d14577f4e487b7100000000000000000000000000000000000000000000000000000000600052603260045260246000fd5b6020026020010151868381518110610d55577f4e487b7100000000000000000000000000000000000000000000000000000000600052603260045260246000fd5b6020026020010151868481518110610d96577f4e487b7100000000000000000000000000000000000000000000000000000000600052603260045260246000fd5b602002602001015186868681518110610dd8577f4e487b7100000000000000000000000000000000000000000000000000000000600052603260045260246000fd5b6020026020010151336122ad565b8080610df190615d55565b915050610ccf565b505050505050565b610e09611eb2565b73ffffffffffffffffffffffffffffffffffffffff16610e2761162b565b73ffffffffffffffffffffffffffffffffffffffff1614610e7d576040517f08c379a0000000000000000000000000000000000000000000000000000000008152600401610e7490615789565b60405180910390fd5b610e8b8686868686866122ad565b505050505050565b6000610e9e8361137a565b8210610edf576040517f08c379a0000000000000000000000000000000000000000000000000000000008152600401610ed690615569565b60405180910390fd5b600660008473ffffffffffffffffffffffffffffffffffffffff1673ffffffffffffffffffffffffffffffffffffffff168152602001908152602001600020600083815260200190815260200160002054905092915050565b610f5383838360405180602001604052806000815250611acf565b505050565b60136020528060005260406000206000915090508054610f7790615d23565b80601f0160208091040260200160405190810160405280929190818152602001828054610fa390615d23565b8015610ff05780601f10610fc557610100808354040283529160200191610ff0565b820191906000526020600020905b815481529060010190602001808311610fd357829003601f168201915b505050505081565b611000611eb2565b73ffffffffffffffffffffffffffffffffffffffff1661101e61162b565b73ffffffffffffffffffffffffffffffffffffffff1614611074576040517f08c379a000000000000000000000000000000000000000000000000000000000815260040161106b90615789565b60405180910390fd5b80600e8190555050565b60146020528060005260406000206000915090505481565b60006110a0610b29565b82106110e1576040517f08c379a00000000000000000000000000000000000000000000000000000000081526004016110d890615869565b60405180910390fd5b6008828154811061111b577f4e487b7100000000000000000000000000000000000000000000000000000000600052603260045260246000fd5b90600052602060002001549050919050565b611135611eb2565b73ffffffffffffffffffffffffffffffffffffffff1661115361162b565b73ffffffffffffffffffffffffffffffffffffffff16146111a9576040517f08c379a00000000000000000000000000000000000000000000000000000000081526004016111a090615789565b60405180910390fd5b60004790508173ffffffffffffffffffffffffffffffffffffffff166108fc829081150290604051600060405180830381858888f193505050501580156111f4573d6000803e3d6000fd5b505050565b600f54341461120757600080fd5b3373ffffffffffffffffffffffffffffffffffffffff16611227836112c8565b73ffffffffffffffffffffffffffffffffffffffff161461124757600080fd5b601154431015801561125b57506012544311155b61126457600080fd5b8060136000848152602001908152602001600020908051906020019061128b929190613c89565b50817f9726e950b835e1f7f4fe747cca4223de678452a4f67c102d50408e22e94e9485826040516112bc9190615507565b60405180910390a25050565b6000806002600084815260200190815260200160002060009054906101000a900473ffffffffffffffffffffffffffffffffffffffff169050600073ffffffffffffffffffffffffffffffffffffffff168173ffffffffffffffffffffffffffffffffffffffff161415611371576040517f08c379a0000000000000000000000000000000000000000000000000000000008152600401611368906156c9565b60405180910390fd5b80915050919050565b60008073ffffffffffffffffffffffffffffffffffffffff168273ffffffffffffffffffffffffffffffffffffffff1614156113eb576040517f08c379a00000000000000000000000000000000000000000000000000000000081526004016113e2906156a9565b60405180910390fd5b600360008373ffffffffffffffffffffffffffffffffffffffff1673ffffffffffffffffffffffffffffffffffffffff168152602001908152602001600020549050919050565b61143a611eb2565b73ffffffffffffffffffffffffffffffffffffffff1661145861162b565b73ffffffffffffffffffffffffffffffffffffffff16146114ae576040517f08c379a00000000000000000000000000000000000000000000000000000000081526004016114a590615789565b60405180910390fd5b6114b86000612773565b565b60125481565b6114c8611eb2565b73ffffffffffffffffffffffffffffffffffffffff166114e661162b565b73ffffffffffffffffffffffffffffffffffffffff161461153c576040517f08c379a000000000000000000000000000000000000000000000000000000000815260040161153390615789565b60405180910390fd5b5050565b600e5481565b61154e611eb2565b73ffffffffffffffffffffffffffffffffffffffff1661156c61162b565b73ffffffffffffffffffffffffffffffffffffffff16146115c2576040517f08c379a00000000000000000000000000000000000000000000000000000000081526004016115b990615789565b60405180910390fd5b600060115414611607576040517f08c379a00000000000000000000000000000000000000000000000000000000081526004016115fe90615889565b60405180910390fd5b80601181905550614a7f8161161c9190615b2f565b60128190555050565b600f5481565b6000600a60009054906101000a900473ffffffffffffffffffffffffffffffffffffffff16905090565b60115481565b60606001805461166a90615d23565b80601f016020809104026020016040519081016040528092919081815260200182805461169690615d23565b80156116e35780601f106116b8576101008083540402835291602001916116e3565b820191906000526020600020905b8154815290600101906020018083116116c657829003601f168201915b5050505050905090565b6116f5611eb2565b73ffffffffffffffffffffffffffffffffffffffff1661171361162b565b73ffffffffffffffffffffffffffffffffffffffff1614611769576040517f08c379a000000000000000000000000000000000000000000000000000000000815260040161176090615789565b60405180910390fd5b806010908051906020019061177f929190613c89565b5050565b61178b611eb2565b73ffffffffffffffffffffffffffffffffffffffff168273ffffffffffffffffffffffffffffffffffffffff1614156117f9576040517f08c379a00000000000000000000000000000000000000000000000000000000081526004016117f090615609565b60405180910390fd5b8060056000611806611eb2565b73ffffffffffffffffffffffffffffffffffffffff1673ffffffffffffffffffffffffffffffffffffffff16815260200190815260200160002060008473ffffffffffffffffffffffffffffffffffffffff1673ffffffffffffffffffffffffffffffffffffffff16815260200190815260200160002060006101000a81548160ff0219169083151502179055508173ffffffffffffffffffffffffffffffffffffffff166118b3611eb2565b73ffffffffffffffffffffffffffffffffffffffff167f17307eab39ab6107e8899845ad3d59bd9653f200f220920489ca2b5937696c31836040516118f8919061548c565b60405180910390a35050565b61190c611eb2565b73ffffffffffffffffffffffffffffffffffffffff1661192a61162b565b73ffffffffffffffffffffffffffffffffffffffff1614611980576040517f08c379a000000000000000000000000000000000000000000000000000000000815260040161197790615789565b60405180910390fd5b80600d60006101000a81548173ffffffffffffffffffffffffffffffffffffffff021916908373ffffffffffffffffffffffffffffffffffffffff16021790555050565b3373ffffffffffffffffffffffffffffffffffffffff166119e4826112c8565b73ffffffffffffffffffffffffffffffffffffffff1614611a3a576040517f08c379a0000000000000000000000000000000000000000000000000000000008152600401611a31906157a9565b60405180910390fd5b80601460003373ffffffffffffffffffffffffffffffffffffffff1673ffffffffffffffffffffffffffffffffffffffff168152602001908152602001600020819055503373ffffffffffffffffffffffffffffffffffffffff167f9bc69fd0e63231957daa6abe5af60a488ed6d7b33dc6be78443b607e672d952c82604051611ac491906158a9565b60405180910390a250565b611ae0611ada611eb2565b83611f73565b611b1f576040517f08c379a0000000000000000000000000000000000000000000000000000000008152600401611b1690615849565b60405180910390fd5b611b2b84848484612839565b50505050565b6060611b3c82611e46565b611b7b576040517f08c379a0000000000000000000000000000000000000000000000000000000008152600401611b72906157e9565b60405180910390fd5b6000611b85612895565b90506000815111611ba55760405180602001604052806000815250611bd0565b80611baf84612927565b604051602001611bc09291906153b0565b6040516020818303038152906040525b915050919050565b6000600560008473ffffffffffffffffffffffffffffffffffffffff1673ffffffffffffffffffffffffffffffffffffffff16815260200190815260200160002060008373ffffffffffffffffffffffffffffffffffffffff1673ffffffffffffffffffffffffffffffffffffffff16815260200190815260200160002060009054906101000a900460ff16905092915050565b611c74611eb2565b73ffffffffffffffffffffffffffffffffffffffff16611c9261162b565b73ffffffffffffffffffffffffffffffffffffffff1614611ce8576040517f08c379a0000000000000000000000000000000000000000000000000000000008152600401611cdf90615789565b60405180910390fd5b600073ffffffffffffffffffffffffffffffffffffffff168173ffffffffffffffffffffffffffffffffffffffff161415611d58576040517f08c379a0000000000000000000000000000000000000000000000000000000008152600401611d4f906155a9565b60405180910390fd5b611d6181612773565b50565b60007f80ac58cd000000000000000000000000000000000000000000000000000000007bffffffffffffffffffffffffffffffffffffffffffffffffffffffff1916827bffffffffffffffffffffffffffffffffffffffffffffffffffffffff19161480611e2f57507f5b5e139f000000000000000000000000000000000000000000000000000000007bffffffffffffffffffffffffffffffffffffffffffffffffffffffff1916827bffffffffffffffffffffffffffffffffffffffffffffffffffffffff1916145b80611e3f5750611e3e82612ad4565b5b9050919050565b60008073ffffffffffffffffffffffffffffffffffffffff166002600084815260200190815260200160002060009054906101000a900473ffffffffffffffffffffffffffffffffffffffff1673ffffffffffffffffffffffffffffffffffffffff1614159050919050565b600033905090565b816004600083815260200190815260200160002060006101000a81548173ffffffffffffffffffffffffffffffffffffffff021916908373ffffffffffffffffffffffffffffffffffffffff160217905550808273ffffffffffffffffffffffffffffffffffffffff16611f2d836112c8565b73ffffffffffffffffffffffffffffffffffffffff167f8c5be1e5ebec7d5bd14f71427d1e84f3dd0314c0f7b2291e5b200ac8c7c3b92560405160405180910390a45050565b6000611f7e82611e46565b611fbd576040517f08c379a0000000000000000000000000000000000000000000000000000000008152600401611fb490615649565b60405180910390fd5b6000611fc8836112c8565b90508073ffffffffffffffffffffffffffffffffffffffff168473ffffffffffffffffffffffffffffffffffffffff16148061203757508373ffffffffffffffffffffffffffffffffffffffff1661201f8461098c565b73ffffffffffffffffffffffffffffffffffffffff16145b8061204857506120478185611bd8565b5b91505092915050565b8273ffffffffffffffffffffffffffffffffffffffff16612071826112c8565b73ffffffffffffffffffffffffffffffffffffffff16146120c7576040517f08c379a00000000000000000000000000000000000000000000000000000000081526004016120be906157c9565b60405180910390fd5b600073ffffffffffffffffffffffffffffffffffffffff168273ffffffffffffffffffffffffffffffffffffffff161415612137576040517f08c379a000000000000000000000000000000000000000000000000000000000815260040161212e906155e9565b60405180910390fd5b612142838383612b3e565b61214d600082611eba565b6001600360008573ffffffffffffffffffffffffffffffffffffffff1673ffffffffffffffffffffffffffffffffffffffff168152602001908152602001600020600082825461219d9190615c10565b925050819055506001600360008473ffffffffffffffffffffffffffffffffffffffff1673ffffffffffffffffffffffffffffffffffffffff16815260200190815260200160002060008282546121f49190615b2f565b92505081905550816002600083815260200190815260200160002060006101000a81548173ffffffffffffffffffffffffffffffffffffffff021916908373ffffffffffffffffffffffffffffffffffffffff160217905550808273ffffffffffffffffffffffffffffffffffffffff168473ffffffffffffffffffffffffffffffffffffffff167fddf252ad1be2c89b69c2b068fc378daa952ba7f163c4a11628f55a4df523b3ef60405160405180910390a4505050565b6000868685876040516020016122c6949392919061536a565b604051602081830303815290604052805190602001209050600d60009054906101000a900473ffffffffffffffffffffffffffffffffffffffff1673ffffffffffffffffffffffffffffffffffffffff166123328461232484612c28565b612c5890919063ffffffff16565b73ffffffffffffffffffffffffffffffffffffffff1614612388576040517f08c379a000000000000000000000000000000000000000000000000000000000815260040161237f90615729565b60405180910390fd5b612710600c54106123ce576040517f08c379a00000000000000000000000000000000000000000000000000000000081526004016123c5906156e9565b60405180910390fd5b6123d6613d0f565b60005b600b54811015612578576123eb613d3d565b808383600a8110612425577f4e487b7100000000000000000000000000000000000000000000000000000000600052603260045260246000fd5b6020020181905250600082148061244957506001600b546124469190615c10565b82145b156124545750612565565b600081600060058110612490577f4e487b7100000000000000000000000000000000000000000000000000000000600052603260045260246000fd5b6020020181815250506000600190505b60058110156125625760028b826005866124ba9190615bb6565b6124c49190615b2f565b815181106124fb577f4e487b7100000000000000000000000000000000000000000000000000000000600052603260045260246000fd5b602002602001015161250d9190615db2565b828260058110612546577f4e487b7100000000000000000000000000000000000000000000000000000000600052603260045260246000fd5b602002018181525050808061255a90615d55565b9150506124a0565b50505b808061257090615d55565b9150506123d9565b5060005b60028110156125a35761258e82612d07565b9150808061259b90615d55565b91505061257c565b506125ac613d5f565b60005b600381101561270d5760005b8282600381106125f4577f4e487b7100000000000000000000000000000000000000000000000000000000600052603260045260246000fd5b60200201515060038110156126f95760ff8a826003856126149190615bb6565b61261e9190615b2f565b81518110612655577f4e487b7100000000000000000000000000000000000000000000000000000000600052603260045260246000fd5b60200260200101516126679190615db2565b8383600381106126a0577f4e487b7100000000000000000000000000000000000000000000000000000000600052603260045260246000fd5b602002015182600381106126dd577f4e487b7100000000000000000000000000000000000000000000000000000000600052603260045260246000fd5b60200201818152505080806126f190615d55565b9150506125bb565b50808061270590615d55565b9150506125af565b5061272c84600c6000815461272190615d55565b919050819055612f2d565b600c547f6f84a8a2bbe12087124f8f2c8053f1e5e1cc04e7b1b4db229c3180dbb27836ea8383604051612760929190615461565b60405180910390a2505050505050505050565b6000600a60009054906101000a900473ffffffffffffffffffffffffffffffffffffffff16905081600a60006101000a81548173ffffffffffffffffffffffffffffffffffffffff021916908373ffffffffffffffffffffffffffffffffffffffff1602179055508173ffffffffffffffffffffffffffffffffffffffff168173ffffffffffffffffffffffffffffffffffffffff167f8be0079c531659141344cd1fd0a4f28419497f9722a3daafe3b4186f6b6457e060405160405180910390a35050565b612844848484612051565b61285084848484612f4b565b61288f576040517f08c379a000000000000000000000000000000000000000000000000000000000815260040161288690615589565b60405180910390fd5b50505050565b6060601080546128a490615d23565b80601f01602080910402602001604051908101604052809291908181526020018280546128d090615d23565b801561291d5780601f106128f25761010080835404028352916020019161291d565b820191906000526020600020905b81548152906001019060200180831161290057829003601f168201915b5050505050905090565b6060600082141561296f576040518060400160405280600181526020017f30000000000000000000000000000000000000000000000000000000000000008152509050612acf565b600082905060005b600082146129a157808061298a90615d55565b915050600a8261299a9190615b85565b9150612977565b60008167ffffffffffffffff8111156129e3577f4e487b7100000000000000000000000000000000000000000000000000000000600052604160045260246000fd5b6040519080825280601f01601f191660200182016040528015612a155781602001600182028036833780820191505090505b5090505b60008514612ac857600182612a2e9190615c10565b9150600a85612a3d9190615db2565b6030612a499190615b2f565b60f81b818381518110612a85577f4e487b7100000000000000000000000000000000000000000000000000000000600052603260045260246000fd5b60200101907effffffffffffffffffffffffffffffffffffffffffffffffffffffffffffff1916908160001a905350600a85612ac19190615b85565b9450612a19565b8093505050505b919050565b60007f01ffc9a7000000000000000000000000000000000000000000000000000000007bffffffffffffffffffffffffffffffffffffffffffffffffffffffff1916827bffffffffffffffffffffffffffffffffffffffffffffffffffffffff1916149050919050565b612b498383836130e2565b80601460008573ffffffffffffffffffffffffffffffffffffffff1673ffffffffffffffffffffffffffffffffffffffff168152602001908152602001600020541415612c2357601460008473ffffffffffffffffffffffffffffffffffffffff1673ffffffffffffffffffffffffffffffffffffffff168152602001908152602001600020600090553373ffffffffffffffffffffffffffffffffffffffff167f9bc69fd0e63231957daa6abe5af60a488ed6d7b33dc6be78443b607e672d952c6000604051612c1a91906154ec565b60405180910390a25b505050565b600081604051602001612c3b91906153d4565b604051602081830303815290604052805190602001209050919050565b6000604182511415612c975760008060006020850151925060408501519150606085015160001a9050612c8d868285856131f6565b9350505050612d01565b604082511415612cc6576000806020840151915060408401519050612cbd858383613381565b92505050612d01565b6040517f08c379a0000000000000000000000000000000000000000000000000000000008152600401612cf890615549565b60405180910390fd5b92915050565b612d0f613d0f565b612d17613d0f565b6000600a905060005b81811015612f2257612d30613d3d565b808483600a8110612d6a577f4e487b7100000000000000000000000000000000000000000000000000000000600052603260045260246000fd5b60200201819052506000821480612d8c5750600183612d899190615c10565b82145b15612d975750612f0f565b600081600060058110612dd3577f4e487b7100000000000000000000000000000000000000000000000000000000600052603260045260246000fd5b6020020181815250506000600190505b6005811015612f0c576000612df98883866133cb565b905060008885600a8110612e36577f4e487b7100000000000000000000000000000000000000000000000000000000600052603260045260246000fd5b60200201518360058110612e73577f4e487b7100000000000000000000000000000000000000000000000000000000600052603260045260246000fd5b602002015114612e9f576002811480612e8c5750600381145b612e97576000612e9a565b60015b612eb3565b6001811115612eaf576000612eb2565b60015b5b60ff16838360058110612eef577f4e487b7100000000000000000000000000000000000000000000000000000000600052603260045260246000fd5b602002018181525050508080612f0490615d55565b915050612de3565b50505b8080612f1a90615d55565b915050612d20565b508192505050919050565b612f478282604051806020016040528060008152506136d0565b5050565b6000612f6c8473ffffffffffffffffffffffffffffffffffffffff1661372b565b156130d5578373ffffffffffffffffffffffffffffffffffffffff1663150b7a02612f95611eb2565b8786866040518563ffffffff1660e01b8152600401612fb79493929190615415565b602060405180830381600087803b158015612fd157600080fd5b505af192505050801561300257506040513d601f19601f82011682018060405250810190612fff9190614515565b60015b613085573d8060008114613032576040519150601f19603f3d011682016040523d82523d6000602084013e613037565b606091505b5060008151141561307d576040517f08c379a000000000000000000000000000000000000000000000000000000000815260040161307490615589565b60405180910390fd5b805181602001fd5b63150b7a0260e01b7bffffffffffffffffffffffffffffffffffffffffffffffffffffffff1916817bffffffffffffffffffffffffffffffffffffffffffffffffffffffff1916149150506130da565b600190505b949350505050565b6130ed83838361373e565b600073ffffffffffffffffffffffffffffffffffffffff168373ffffffffffffffffffffffffffffffffffffffff1614156131305761312b81613743565b61316f565b8173ffffffffffffffffffffffffffffffffffffffff168373ffffffffffffffffffffffffffffffffffffffff161461316e5761316d838261378c565b5b5b600073ffffffffffffffffffffffffffffffffffffffff168273ffffffffffffffffffffffffffffffffffffffff1614156131b2576131ad816138f9565b6131f1565b8273ffffffffffffffffffffffffffffffffffffffff168273ffffffffffffffffffffffffffffffffffffffff16146131f0576131ef8282613a3c565b5b5b505050565b60007f7fffffffffffffffffffffffffffffff5d576e7357a4501ddfe92f46681b20a08260001c111561325e576040517f08c379a000000000000000000000000000000000000000000000000000000000815260040161325590615629565b60405180910390fd5b601b8460ff1614806132735750601c8460ff16145b6132b2576040517f08c379a00000000000000000000000000000000000000000000000000000000081526004016132a990615709565b60405180910390fd5b6000600186868686604051600081526020016040526040516132d794939291906154a7565b6020604051602081039080840390855afa1580156132f9573d6000803e3d6000fd5b505050602060405103519050600073ffffffffffffffffffffffffffffffffffffffff168173ffffffffffffffffffffffffffffffffffffffff161415613375576040517f08c379a000000000000000000000000000000000000000000000000000000000815260040161336c90615529565b60405180910390fd5b80915050949350505050565b60008060007f7fffffffffffffffffffffffffffffffffffffffffffffffffffffffffffffff84169150601b8460ff1c0190506133c0868287856131f6565b925050509392505050565b6000806000905060008584600a811061340d577f4e487b7100000000000000000000000000000000000000000000000000000000600052603260045260246000fd5b602002015160018661341f9190615c10565b60058110613456577f4e487b7100000000000000000000000000000000000000000000000000000000600052603260045260246000fd5b6020020151111561347057808061346c90615d55565b9150505b60018584600a81106134ab577f4e487b7100000000000000000000000000000000000000000000000000000000600052603260045260246000fd5b60200201515060056134bd9190615c10565b84108015613551575060008584600a8110613501577f4e487b7100000000000000000000000000000000000000000000000000000000600052603260045260246000fd5b60200201516001866135139190615b2f565b6005811061354a577f4e487b7100000000000000000000000000000000000000000000000000000000600052603260045260246000fd5b6020020151115b1561356557808061356190615d55565b9150505b6000831180156135fb57506000856001856135809190615c10565b600a81106135b7577f4e487b7100000000000000000000000000000000000000000000000000000000600052603260045260246000fd5b602002015185600581106135f4577f4e487b7100000000000000000000000000000000000000000000000000000000600052603260045260246000fd5b6020020151115b1561360f57808061360b90615d55565b9150505b6001600a61361d9190615c10565b831080156136b157506000856001856136369190615b2f565b600a811061366d577f4e487b7100000000000000000000000000000000000000000000000000000000600052603260045260246000fd5b602002015185600581106136aa577f4e487b7100000000000000000000000000000000000000000000000000000000600052603260045260246000fd5b6020020151115b156136c55780806136c190615d55565b9150505b809150509392505050565b6136da8383613abb565b6136e76000848484612f4b565b613726576040517f08c379a000000000000000000000000000000000000000000000000000000000815260040161371d90615589565b60405180910390fd5b505050565b600080823b905060008111915050919050565b505050565b6008805490506009600083815260200190815260200160002081905550600881908060018154018082558091505060019003906000526020600020016000909190919091505550565b600060016137998461137a565b6137a39190615c10565b9050600060076000848152602001908152602001600020549050818114613888576000600660008673ffffffffffffffffffffffffffffffffffffffff1673ffffffffffffffffffffffffffffffffffffffff168152602001908152602001600020600084815260200190815260200160002054905080600660008773ffffffffffffffffffffffffffffffffffffffff1673ffffffffffffffffffffffffffffffffffffffff168152602001908152602001600020600084815260200190815260200160002081905550816007600083815260200190815260200160002081905550505b6007600084815260200190815260200160002060009055600660008573ffffffffffffffffffffffffffffffffffffffff1673ffffffffffffffffffffffffffffffffffffffff16815260200190815260200160002060008381526020019081526020016000206000905550505050565b6000600160088054905061390d9190615c10565b9050600060096000848152602001908152602001600020549050600060088381548110613963577f4e487b7100000000000000000000000000000000000000000000000000000000600052603260045260246000fd5b9060005260206000200154905080600883815481106139ab577f4e487b7100000000000000000000000000000000000000000000000000000000600052603260045260246000fd5b906000526020600020018190555081600960008381526020019081526020016000208190555060096000858152602001908152602001600020600090556008805480613a20577f4e487b7100000000000000000000000000000000000000000000000000000000600052603160045260246000fd5b6001900381819060005260206000200160009055905550505050565b6000613a478361137a565b905081600660008573ffffffffffffffffffffffffffffffffffffffff1673ffffffffffffffffffffffffffffffffffffffff168152602001908152602001600020600083815260200190815260200160002081905550806007600084815260200190815260200160002081905550505050565b600073ffffffffffffffffffffffffffffffffffffffff168273ffffffffffffffffffffffffffffffffffffffff161415613b2b576040517f08c379a0000000000000000000000000000000000000000000000000000000008152600401613b2290615749565b60405180910390fd5b613b3481611e46565b15613b74576040517f08c379a0000000000000000000000000000000000000000000000000000000008152600401613b6b906155c9565b60405180910390fd5b613b8060008383612b3e565b6001600360008473ffffffffffffffffffffffffffffffffffffffff1673ffffffffffffffffffffffffffffffffffffffff1681526020019081526020016000206000828254613bd09190615b2f565b92505081905550816002600083815260200190815260200160002060006101000a81548173ffffffffffffffffffffffffffffffffffffffff021916908373ffffffffffffffffffffffffffffffffffffffff160217905550808273ffffffffffffffffffffffffffffffffffffffff16600073ffffffffffffffffffffffffffffffffffffffff167fddf252ad1be2c89b69c2b068fc378daa952ba7f163c4a11628f55a4df523b3ef60405160405180910390a45050565b828054613c9590615d23565b90600052602060002090601f016020900481019282613cb75760008555613cfe565b82601f10613cd057805160ff1916838001178555613cfe565b82800160010185558215613cfe579182015b82811115613cfd578251825591602001919060010190613ce2565b5b509050613d0b9190613d8c565b5090565b604051806101400160405280600a905b613d27613d3d565b815260200190600190039081613d1f5790505090565b6040518060a00160405280600590602082028036833780820191505090505090565b60405180606001604052806003905b613d76613da9565b815260200190600190039081613d6e5790505090565b5b80821115613da5576000816000905550600101613d8d565b5090565b6040518060600160405280600390602082028036833780820191505090505090565b6000613dde613dd9846158f5565b6158c4565b9050808382526020820190508260005b85811015613e1e5781358501613e04888261406c565b845260208401935060208301925050600181019050613dee565b5050509392505050565b6000613e3b613e3684615921565b6158c4565b90508083825260208201905082856020860282011115613e5a57600080fd5b60005b85811015613e8a5781613e7088826140ab565b845260208401935060208301925050600181019050613e5d565b5050509392505050565b6000613ea7613ea28461594d565b6158c4565b9050808382526020820190508260005b85811015613ee75781358501613ecd8882614134565b845260208401935060208301925050600181019050613eb7565b5050509392505050565b6000613f04613eff84615979565b6158c4565b90508083825260208201905082856020860282011115613f2357600080fd5b60005b85811015613f535781613f398882614188565b845260208401935060208301925050600181019050613f26565b5050509392505050565b6000613f70613f6b846159a5565b6158c4565b905082815260208101848484011115613f8857600080fd5b613f93848285615ce1565b509392505050565b6000613fae613fa9846159d5565b6158c4565b905082815260208101848484011115613fc657600080fd5b613fd1848285615ce1565b509392505050565b600081359050613fe881615eb0565b92915050565b600082601f830112613fff57600080fd5b813561400f848260208601613dcb565b91505092915050565b600082601f83011261402957600080fd5b8135614039848260208601613e28565b91505092915050565b600082601f83011261405357600080fd5b8135614063848260208601613e94565b91505092915050565b600082601f83011261407d57600080fd5b813561408d848260208601613ef1565b91505092915050565b6000813590506140a581615ec7565b92915050565b6000813590506140ba81615ede565b92915050565b6000813590506140cf81615ef5565b92915050565b6000815190506140e481615ef5565b92915050565b60008083601f8401126140fc57600080fd5b8235905067ffffffffffffffff81111561411557600080fd5b60208301915083600182028301111561412d57600080fd5b9250929050565b600082601f83011261414557600080fd5b8135614155848260208601613f5d565b91505092915050565b600082601f83011261416f57600080fd5b813561417f848260208601613f9b565b91505092915050565b60008135905061419781615f0c565b92915050565b6000602082840312156141af57600080fd5b60006141bd84828501613fd9565b91505092915050565b600080604083850312156141d957600080fd5b60006141e785828601613fd9565b92505060206141f885828601613fd9565b9150509250929050565b60008060006060848603121561421757600080fd5b600061422586828701613fd9565b935050602061423686828701613fd9565b925050604061424786828701614188565b9150509250925092565b6000806000806080858703121561426757600080fd5b600061427587828801613fd9565b945050602061428687828801613fd9565b935050604061429787828801614188565b925050606085013567ffffffffffffffff8111156142b457600080fd5b6142c087828801614134565b91505092959194509250565b600080604083850312156142df57600080fd5b60006142ed85828601613fd9565b92505060206142fe85828601614096565b9150509250929050565b6000806040838503121561431b57600080fd5b600061432985828601613fd9565b925050602061433a85828601614188565b9150509250929050565b600080600080600060a0868803121561435c57600080fd5b600086013567ffffffffffffffff81111561437657600080fd5b61438288828901613fee565b955050602086013567ffffffffffffffff81111561439f57600080fd5b6143ab88828901613fee565b945050604086013567ffffffffffffffff8111156143c857600080fd5b6143d488828901614018565b93505060606143e588828901614188565b925050608086013567ffffffffffffffff81111561440257600080fd5b61440e88828901614042565b9150509295509295909350565b60008060008060008060c0878903121561443457600080fd5b600087013567ffffffffffffffff81111561444e57600080fd5b61445a89828a0161406c565b965050602087013567ffffffffffffffff81111561447757600080fd5b61448389828a0161406c565b955050604061449489828a016140ab565b94505060606144a589828a01614188565b935050608087013567ffffffffffffffff8111156144c257600080fd5b6144ce89828a01614134565b92505060a06144df89828a01613fd9565b9150509295509295509295565b6000602082840312156144fe57600080fd5b600061450c848285016140c0565b91505092915050565b60006020828403121561452757600080fd5b6000614535848285016140d5565b91505092915050565b6000806020838503121561455157600080fd5b600083013567ffffffffffffffff81111561456b57600080fd5b614577858286016140ea565b92509250509250929050565b60006020828403121561459557600080fd5b600082013567ffffffffffffffff8111156145af57600080fd5b6145bb8482850161415e565b91505092915050565b6000602082840312156145d657600080fd5b60006145e484828501614188565b91505092915050565b6000806040838503121561460057600080fd5b600061460e85828601614188565b925050602083013567ffffffffffffffff81111561462b57600080fd5b6146378582860161415e565b9150509250929050565b600061464d838361475e565b60608301905092915050565b600061466583836147b5565b60a08301905092915050565b600061467d8383615317565b60208301905092915050565b60006146958383615335565b60208301905092915050565b6146aa81615c44565b82525050565b6146b981615a3d565b6146c38184615acb565b92506146ce82615a05565b8060005b838110156146ff5781516146e68782614641565b96506146f183615a8a565b9250506001810190506146d2565b505050505050565b61471081615a48565b61471a8184615ad6565b925061472582615a0f565b8060005b8381101561475657815161473d8782614659565b965061474883615a97565b925050600181019050614729565b505050505050565b61476781615a53565b6147718184615ae1565b925061477c82615a19565b8060005b838110156147ad5781516147948782614671565b965061479f83615aa4565b925050600181019050614780565b505050505050565b6147be81615a5e565b6147c88184615aec565b92506147d382615a23565b8060005b838110156148045781516147eb8782614671565b96506147f683615ab1565b9250506001810190506147d7565b505050505050565b600061481782615a69565b6148218185615af7565b935061482c83615a2d565b8060005b8381101561485d5781516148448882614689565b975061484f83615abe565b925050600181019050614830565b5085935050505092915050565b61487381615c56565b82525050565b61488281615c62565b82525050565b61489961489482615c62565b615d9e565b82525050565b60006148aa82615a74565b6148b48185615b02565b93506148c4818560208601615cf0565b6148cd81615e9f565b840191505092915050565b6148e181615ccf565b82525050565b60006148f282615a7f565b6148fc8185615b13565b935061490c818560208601615cf0565b61491581615e9f565b840191505092915050565b600061492b82615a7f565b6149358185615b24565b9350614945818560208601615cf0565b80840191505092915050565b600061495e601883615b13565b91507f45434453413a20696e76616c6964207369676e617475726500000000000000006000830152602082019050919050565b600061499e601f83615b13565b91507f45434453413a20696e76616c6964207369676e6174757265206c656e677468006000830152602082019050919050565b60006149de601c83615b24565b91507f19457468657265756d205369676e6564204d6573736167653a0a3332000000006000830152601c82019050919050565b6000614a1e602b83615b13565b91507f455243373231456e756d657261626c653a206f776e657220696e646578206f7560008301527f74206f6620626f756e64730000000000000000000000000000000000000000006020830152604082019050919050565b6000614a84603283615b13565b91507f4552433732313a207472616e7366657220746f206e6f6e20455243373231526560008301527f63656976657220696d706c656d656e74657200000000000000000000000000006020830152604082019050919050565b6000614aea602683615b13565b91507f4f776e61626c653a206e6577206f776e657220697320746865207a65726f206160008301527f64647265737300000000000000000000000000000000000000000000000000006020830152604082019050919050565b6000614b50601c83615b13565b91507f4552433732313a20746f6b656e20616c7265616479206d696e746564000000006000830152602082019050919050565b6000614b90602483615b13565b91507f4552433732313a207472616e7366657220746f20746865207a65726f2061646460008301527f72657373000000000000000000000000000000000000000000000000000000006020830152604082019050919050565b6000614bf6601983615b13565b91507f4552433732313a20617070726f766520746f2063616c6c6572000000000000006000830152602082019050919050565b6000614c36602283615b13565b91507f45434453413a20696e76616c6964207369676e6174757265202773272076616c60008301527f75650000000000000000000000000000000000000000000000000000000000006020830152604082019050919050565b6000614c9c602c83615b13565b91507f4552433732313a206f70657261746f7220717565727920666f72206e6f6e657860008301527f697374656e7420746f6b656e00000000000000000000000000000000000000006020830152604082019050919050565b6000614d02601883615b13565b91507f5078473a2041727261797320646f206e6f74206d6174636800000000000000006000830152602082019050919050565b6000614d42603883615b13565b91507f4552433732313a20617070726f76652063616c6c6572206973206e6f74206f7760008301527f6e6572206e6f7220617070726f76656420666f7220616c6c00000000000000006020830152604082019050919050565b6000614da8602a83615b13565b91507f4552433732313a2062616c616e636520717565727920666f7220746865207a6560008301527f726f2061646472657373000000000000000000000000000000000000000000006020830152604082019050919050565b6000614e0e602983615b13565b91507f4552433732313a206f776e657220717565727920666f72206e6f6e657869737460008301527f656e7420746f6b656e00000000000000000000000000000000000000000000006020830152604082019050919050565b6000614e74601683615b13565b91507f5078473a20416c6c20676c79706873206d696e746564000000000000000000006000830152602082019050919050565b6000614eb4602283615b13565b91507f45434453413a20696e76616c6964207369676e6174757265202776272076616c60008301527f75650000000000000000000000000000000000000000000000000000000000006020830152604082019050919050565b6000614f1a601683615b13565b91507f5078473a20496e76616c6964207369676e6174757265000000000000000000006000830152602082019050919050565b6000614f5a602083615b13565b91507f4552433732313a206d696e7420746f20746865207a65726f20616464726573736000830152602082019050919050565b6000614f9a602c83615b13565b91507f4552433732313a20617070726f76656420717565727920666f72206e6f6e657860008301527f697374656e7420746f6b656e00000000000000000000000000000000000000006020830152604082019050919050565b6000615000602083615b13565b91507f4f776e61626c653a2063616c6c6572206973206e6f7420746865206f776e65726000830152602082019050919050565b6000615040601b83615b13565b91507f5078473a204d757374206265206f776e657220746f20657175697000000000006000830152602082019050919050565b6000615080602983615b13565b91507f4552433732313a207472616e73666572206f6620746f6b656e2074686174206960008301527f73206e6f74206f776e00000000000000000000000000000000000000000000006020830152604082019050919050565b60006150e6602f83615b13565b91507f4552433732314d657461646174613a2055524920717565727920666f72206e6f60008301527f6e6578697374656e7420746f6b656e00000000000000000000000000000000006020830152604082019050919050565b600061514c602183615b13565b91507f4552433732313a20617070726f76616c20746f2063757272656e74206f776e6560008301527f72000000000000000000000000000000000000000000000000000000000000006020830152604082019050919050565b60006151b2601483615b13565b91507f5078473a20496e636f72726563742076616c75650000000000000000000000006000830152602082019050919050565b60006151f2603183615b13565b91507f4552433732313a207472616e736665722063616c6c6572206973206e6f74206f60008301527f776e6572206e6f7220617070726f7665640000000000000000000000000000006020830152604082019050919050565b6000615258602c83615b13565b91507f455243373231456e756d657261626c653a20676c6f62616c20696e646578206f60008301527f7574206f6620626f756e647300000000000000000000000000000000000000006020830152604082019050919050565b60006152be602683615b13565b91507f5078473a204e616d696e6720636572656d6f6e792068617320616c726561647960008301527f20626567756e00000000000000000000000000000000000000000000000000006020830152604082019050919050565b61532081615cb8565b82525050565b61532f81615cb8565b82525050565b61533e81615cb8565b82525050565b61535561535082615cb8565b615da8565b82525050565b61536481615cc2565b82525050565b6000615376828761480c565b9150615382828661480c565b915061538e8285615344565b60208201915061539e8284614888565b60208201915081905095945050505050565b60006153bc8285614920565b91506153c88284614920565b91508190509392505050565b60006153df826149d1565b91506153eb8284614888565b60208201915081905092915050565b600060208201905061540f60008301846146a1565b92915050565b600060808201905061542a60008301876146a1565b61543760208301866146a1565b6154446040830185615326565b8181036060830152615456818461489f565b905095945050505050565b6000610760820190506154776000830185614707565b6154856106408301846146b0565b9392505050565b60006020820190506154a1600083018461486a565b92915050565b60006080820190506154bc6000830187614879565b6154c9602083018661535b565b6154d66040830185614879565b6154e36060830184614879565b95945050505050565b600060208201905061550160008301846148d8565b92915050565b6000602082019050818103600083015261552181846148e7565b905092915050565b6000602082019050818103600083015261554281614951565b9050919050565b6000602082019050818103600083015261556281614991565b9050919050565b6000602082019050818103600083015261558281614a11565b9050919050565b600060208201905081810360008301526155a281614a77565b9050919050565b600060208201905081810360008301526155c281614add565b9050919050565b600060208201905081810360008301526155e281614b43565b9050919050565b6000602082019050818103600083015261560281614b83565b9050919050565b6000602082019050818103600083015261562281614be9565b9050919050565b6000602082019050818103600083015261564281614c29565b9050919050565b6000602082019050818103600083015261566281614c8f565b9050919050565b6000602082019050818103600083015261568281614cf5565b9050919050565b600060208201905081810360008301526156a281614d35565b9050919050565b600060208201905081810360008301526156c281614d9b565b9050919050565b600060208201905081810360008301526156e281614e01565b9050919050565b6000602082019050818103600083015261570281614e67565b9050919050565b6000602082019050818103600083015261572281614ea7565b9050919050565b6000602082019050818103600083015261574281614f0d565b9050919050565b6000602082019050818103600083015261576281614f4d565b9050919050565b6000602082019050818103600083015261578281614f8d565b9050919050565b600060208201905081810360008301526157a281614ff3565b9050919050565b600060208201905081810360008301526157c281615033565b9050919050565b600060208201905081810360008301526157e281615073565b9050919050565b60006020820190508181036000830152615802816150d9565b9050919050565b600060208201905081810360008301526158228161513f565b9050919050565b60006020820190508181036000830152615842816151a5565b9050919050565b60006020820190508181036000830152615862816151e5565b9050919050565b600060208201905081810360008301526158828161524b565b9050919050565b600060208201905081810360008301526158a2816152b1565b9050919050565b60006020820190506158be6000830184615326565b92915050565b6000604051905081810181811067ffffffffffffffff821117156158eb576158ea615e70565b5b8060405250919050565b600067ffffffffffffffff8211156159105761590f615e70565b5b602082029050602081019050919050565b600067ffffffffffffffff82111561593c5761593b615e70565b5b602082029050602081019050919050565b600067ffffffffffffffff82111561596857615967615e70565b5b602082029050602081019050919050565b600067ffffffffffffffff82111561599457615993615e70565b5b602082029050602081019050919050565b600067ffffffffffffffff8211156159c0576159bf615e70565b5b601f19601f8301169050602081019050919050565b600067ffffffffffffffff8211156159f0576159ef615e70565b5b601f19601f8301169050602081019050919050565b6000819050919050565b6000819050919050565b6000819050919050565b6000819050919050565b6000819050602082019050919050565b600060039050919050565b6000600a9050919050565b600060039050919050565b600060059050919050565b600081519050919050565b600081519050919050565b600081519050919050565b6000602082019050919050565b6000602082019050919050565b6000602082019050919050565b6000602082019050919050565b6000602082019050919050565b600081905092915050565b600081905092915050565b600081905092915050565b600081905092915050565b600081905092915050565b600082825260208201905092915050565b600082825260208201905092915050565b600081905092915050565b6000615b3a82615cb8565b9150615b4583615cb8565b9250827fffffffffffffffffffffffffffffffffffffffffffffffffffffffffffffffff03821115615b7a57615b79615de3565b5b828201905092915050565b6000615b9082615cb8565b9150615b9b83615cb8565b925082615bab57615baa615e12565b5b828204905092915050565b6000615bc182615cb8565b9150615bcc83615cb8565b9250817fffffffffffffffffffffffffffffffffffffffffffffffffffffffffffffffff0483118215151615615c0557615c04615de3565b5b828202905092915050565b6000615c1b82615cb8565b9150615c2683615cb8565b925082821015615c3957615c38615de3565b5b828203905092915050565b6000615c4f82615c98565b9050919050565b60008115159050919050565b6000819050919050565b60007fffffffff0000000000000000000000000000000000000000000000000000000082169050919050565b600073ffffffffffffffffffffffffffffffffffffffff82169050919050565b6000819050919050565b600060ff82169050919050565b6000615cda82615cb8565b9050919050565b82818337600083830152505050565b60005b83811015615d0e578082015181840152602081019050615cf3565b83811115615d1d576000848401525b50505050565b60006002820490506001821680615d3b57607f821691505b60208210811415615d4f57615d4e615e41565b5b50919050565b6000615d6082615cb8565b91507fffffffffffffffffffffffffffffffffffffffffffffffffffffffffffffffff821415615d9357615d92615de3565b5b600182019050919050565b6000819050919050565b6000819050919050565b6000615dbd82615cb8565b9150615dc883615cb8565b925082615dd857615dd7615e12565b5b828206905092915050565b7f4e487b7100000000000000000000000000000000000000000000000000000000600052601160045260246000fd5b7f4e487b7100000000000000000000000000000000000000000000000000000000600052601260045260246000fd5b7f4e487b7100000000000000000000000000000000000000000000000000000000600052602260045260246000fd5b7f4e487b7100000000000000000000000000000000000000000000000000000000600052604160045260246000fd5b6000601f19601f8301169050919050565b615eb981615c44565b8114615ec457600080fd5b50565b615ed081615c56565b8114615edb57600080fd5b50565b615ee781615c62565b8114615ef257600080fd5b50565b615efe81615c6c565b8114615f0957600080fd5b50565b615f1581615cb8565b8114615f2057600080fd5b5056fea2646970667358221220e5e7ae72b85da49aa06906c7254eef427e7dc12497dfb0bf36f4b22e4aac1f0564736f6c63430008000033",
  "immutableReferences": {},
  "source": "// SPDX-License-Identifier: MIT\npragma solidity >=0.4.22 <0.9.0;\nimport \"@openzeppelin/contracts/utils/cryptography/ECDSA.sol\";\nimport \"@openzeppelin/contracts/token/ERC721/extensions/ERC721Enumerable.sol\";\nimport \"@openzeppelin/contracts/access/Ownable.sol\";\n\n/**\n\n                                                                                                                                                                                   \n                                                                                                                                                                                   \nPPPPPPPPPPPPPPPPP     iiii                                      lllllll                    lllllll                                            hhhhhhh                              \nP::::::::::::::::P   i::::i                                     l:::::l                    l:::::l                                            h:::::h                              \nP::::::PPPPPP:::::P   iiii                                      l:::::l                    l:::::l                                            h:::::h                              \nPP:::::P     P:::::P                                            l:::::l                    l:::::l                                            h:::::h                              \n  P::::P     P:::::Piiiiiii xxxxxxx      xxxxxxx eeeeeeeeeeee    l::::l    ggggggggg   gggggl::::lyyyyyyy           yyyyyyyppppp   ppppppppp   h::::h hhhhh           ssssssssss   \n  P::::P     P:::::Pi:::::i  x:::::x    x:::::xee::::::::::::ee  l::::l   g:::::::::ggg::::gl::::l y:::::y         y:::::y p::::ppp:::::::::p  h::::hh:::::hhh      ss::::::::::s  \n  P::::PPPPPP:::::P  i::::i   x:::::x  x:::::xe::::::eeeee:::::eel::::l  g:::::::::::::::::gl::::l  y:::::y       y:::::y  p:::::::::::::::::p h::::::::::::::hh  ss:::::::::::::s \n  P:::::::::::::PP   i::::i    x:::::xx:::::xe::::::e     e:::::el::::l g::::::ggggg::::::ggl::::l   y:::::y     y:::::y   pp::::::ppppp::::::ph:::::::hhh::::::h s::::::ssss:::::s\n  P::::PPPPPPPPP     i::::i     x::::::::::x e:::::::eeeee::::::el::::l g:::::g     g:::::g l::::l    y:::::y   y:::::y     p:::::p     p:::::ph::::::h   h::::::h s:::::s  ssssss \n  P::::P             i::::i      x::::::::x  e:::::::::::::::::e l::::l g:::::g     g:::::g l::::l     y:::::y y:::::y      p:::::p     p:::::ph:::::h     h:::::h   s::::::s      \n  P::::P             i::::i      x::::::::x  e::::::eeeeeeeeeee  l::::l g:::::g     g:::::g l::::l      y:::::y:::::y       p:::::p     p:::::ph:::::h     h:::::h      s::::::s   \n  P::::P             i::::i     x::::::::::x e:::::::e           l::::l g::::::g    g:::::g l::::l       y:::::::::y        p:::::p    p::::::ph:::::h     h:::::hssssss   s:::::s \nPP::::::PP          i::::::i   x:::::xx:::::xe::::::::e         l::::::lg:::::::ggggg:::::gl::::::l       y:::::::y         p:::::ppppp:::::::ph:::::h     h:::::hs:::::ssss::::::s\nP::::::::P          i::::::i  x:::::x  x:::::xe::::::::eeeeeeee l::::::l g::::::::::::::::gl::::::l        y:::::y          p::::::::::::::::p h:::::h     h:::::hs::::::::::::::s \nP::::::::P          i::::::i x:::::x    x:::::xee:::::::::::::e l::::::l  gg::::::::::::::gl::::::l       y:::::y           p::::::::::::::pp  h:::::h     h:::::h s:::::::::::ss  \nPPPPPPPPPP          iiiiiiiixxxxxxx      xxxxxxx eeeeeeeeeeeeee llllllll    gggggggg::::::gllllllll      y:::::y            p::::::pppppppp    hhhhhhh     hhhhhhh  sssssssssss    \n                                                                                    g:::::g             y:::::y             p:::::p                                                \n                                                                        gggggg      g:::::g            y:::::y              p:::::p                                                \n                                                                        g:::::gg   gg:::::g           y:::::y              p:::::::p                                               \n                                                                         g::::::ggg:::::::g          y:::::y               p:::::::p                                               \n                                                                          gg:::::::::::::g          yyyyyyy                p:::::::p                                               \n                                                                            ggg::::::ggg                                   ppppppppp                                               \n                                                                               gggggg                                                                                              \n\n################################################################################\n################################################################################\n################################################################################\n################################################################################\n################################################################################\n################################################################################\n##############################((((((((((((((((((((##############################\n##############################((((((((((((((((((((##############################\n####################((((((((((####################((((((((((####################\n####################((((((((((####################((((((((((####################\n###############(((((#####(((((####################(((((#####(((((###############\n###############(((((#####(((((####################(((((#####(((((###############\n###############(((((##########(((((##########(((((##########(((((###############\n###############(((((##########(((((##########(((((##########(((((###############\n###############(((((##########(((((##########(((((##########(((((###############\n###############(((((##########(((((##########(((((##########(((((###############\n####################((((((((((####################((((((((((####################\n####################((((((((((####################((((((((((####################\n###############(((((##########((((((((((((((((((((##########(((((###############\n###############(((((##########((((((((((((((((((((##########(((((###############\n###############(((((###############((((((((((###############(((((###############\n###############(((((###############((((((((((###############(((((###############\n####################(((((((((((((((##########(((((((((((((((####################\n####################(((((((((((((((##########(((((((((((((((####################\n###################################((((((((((###################################\n###################################((((((((((###################################\n################################################################################\n################################################################################\n################################################################################\n################################################################################\n################################################################################\n################################################################################\n\n10,000 on-chain avatar NFTs created using a cellular automaton. \n\nA cellular automaton consists of a regular grid of cells, each in one of a finite number of states, \nsuch as on and off. The grid can be in any finite number of dimensions. For each cell, a set of cells \ncalled its neighborhood is defined relative to the specified cell. An initial state (time t = 0) is \nselected by assigning a state for each cell. A new generation is created (advancing t by 1), according \nto some fixed rule (generally, a mathematical function) that determines the new state of each cell in terms \nof the current state of the cell and the states of the cells in its neighborhood. Typically, the rule \nfor updating the state of cells is the same for each cell and does not change over time, and is \napplied to the whole grid simultaneously.\n\n\nhttps://pixelglyphs.io\n\n\n*/\n\ncontract PixelGlyphs is ERC721Enumerable, Ownable {\n  using ECDSA for bytes32;\n\n  uint256 spriteSize = 10;\n  uint256 globalId = 0;\n  address SIGNER;\n  uint256 public PRICE_PER_MINT = 0.009 ether;\n  uint256 public PRICE_PER_NAME = 0.0025 ether;\n  string BASE_URI;\n  uint256 public namingBlockStart;\n  uint256 public namingBlockEnd;\n  mapping(uint256 => string) public names;\n\n  constructor(address signer, string memory baseUri)\n    ERC721(\"PixelGlyphs\", \"PxG\")\n  {\n    SIGNER = signer;\n    BASE_URI = baseUri;\n  }\n\n  event Created(\n    uint256 indexed tokenId,\n    uint256[5][10] glyph,\n    uint256[3][3] colors\n  );\n\n  event Named(uint256 indexed tokenId, string name);\n\n  function nameGlyph(uint256 tokenId, string memory name) public payable {\n    require(msg.value == PRICE_PER_NAME);\n    require(ownerOf(tokenId) == msg.sender);\n    require(block.number >= namingBlockStart && block.number <= namingBlockEnd);\n    names[tokenId] = name;\n    emit Named(tokenId, name);\n  }\n\n  // This will begin The Great Naming Ceremony\n  function setNamingBlock(uint256 blockNumber) public onlyOwner {\n    require(namingBlockStart == 0, \"PxG: Naming ceremony has already begun\");\n    namingBlockStart = blockNumber;\n    // The Great Naming Ceremony will last approximately 5 days\n    namingBlockEnd = blockNumber + (6357 * 3);\n  }\n\n  function _mintInternal(\n    uint256[] memory seed,\n    uint256[] memory cSeed,\n    bytes32 uuid,\n    uint256 timestamp,\n    bytes memory sig,\n    address to\n  ) internal {\n    bytes32 hash = keccak256(abi.encodePacked(seed, cSeed, timestamp, uuid));\n    require(\n      hash.toEthSignedMessageHash().recover(sig) == SIGNER,\n      \"PxG: Invalid signature\"\n    );\n    require(globalId < 10000, \"PxG: All glyphs minted\");\n    uint256[5][10] memory matrix;\n    for (uint256 i = 0; i < spriteSize; i++) {\n      uint256[5] memory row;\n      matrix[i] = row;\n      if (i == 0 || i == spriteSize - 1) continue;\n      row[0] = 0;\n\n      for (uint256 j = 1; j < row.length; j++) {\n        row[j] = seed[i * row.length + j] % 2;\n      }\n    }\n\n    for (uint256 index = 0; index < 2; index++) {\n      matrix = step(matrix);\n    }\n\n    uint256[3][3] memory colors;\n\n    for (uint256 i = 0; i < colors.length; i++) {\n      for (uint256 j = 0; j < colors[i].length; j++) {\n        colors[i][j] = cSeed[i * 3 + j] % 255;\n      }\n    }\n\n    _safeMint(to, ++globalId);\n\n    emit Created(globalId, matrix, colors);\n  }\n\n  function mintTo(\n    uint256[] memory seed,\n    uint256[] memory cSeed,\n    bytes32 uuid,\n    uint256 timestamp,\n    bytes memory sig,\n    address to\n  ) public onlyOwner {\n    _mintInternal(seed, cSeed, uuid, timestamp, sig, to);\n  }\n\n  function setBaseUri(string memory baseUri) public onlyOwner {\n    BASE_URI = baseUri;\n  }\n\n  function _baseURI() internal view virtual override returns (string memory) {\n    return BASE_URI;\n  }\n\n  function mint(\n    uint256[][] memory seeds,\n    uint256[][] memory cSeeds,\n    bytes32[] memory uuids,\n    uint256 timestamp,\n    bytes[] memory sigs\n  ) public payable {\n    require(seeds.length == cSeeds.length, \"PxG: Arrays do not match\");\n    require(uuids.length == seeds.length, \"PxG: Arrays do not match\");\n    require(sigs.length == seeds.length, \"PxG: Arrays do not match\");\n    require(msg.value == PRICE_PER_MINT * seeds.length, \"PxG: Incorrect value\");\n    require(block.timestamp <= timestamp + 6 hours);\n    for (uint256 i = 0; i < seeds.length; i++) {\n      _mintInternal(\n        seeds[i],\n        cSeeds[i],\n        uuids[i],\n        timestamp,\n        sigs[i],\n        msg.sender\n      );\n    }\n  }\n\n  mapping(address => uint256) public equipped;\n\n  event Equip(address indexed owner, uint256 tokenId);\n\n  function equip(uint256 tokenId) public {\n    require(ownerOf(tokenId) == msg.sender, \"PxG: Must be owner to equip\");\n    equipped[msg.sender] = tokenId;\n    emit Equip(msg.sender, tokenId);\n  }\n\n  function _beforeTokenTransfer(\n    address from,\n    address to,\n    uint256 tokenId\n  ) internal override {\n    super._beforeTokenTransfer(from, to, tokenId);\n    if (equipped[from] == tokenId) {\n      delete equipped[from];\n      emit Equip(msg.sender, 0);\n    }\n  }\n\n  function countNeighbors(\n    uint256[5][10] memory matrix,\n    uint256 x,\n    uint256 y\n  ) internal pure returns (uint256) {\n    uint256 count = 0;\n    // check left\n    if (matrix[y][x - 1] > 0) {\n      count++;\n    }\n    // check right\n    if (x < matrix[y].length - 1 && matrix[y][x + 1] > 0) {\n      count++;\n    }\n    // check top\n    if (y > 0 && matrix[y - 1][x] > 0) {\n      count++;\n    }\n    // check bottom\n    if (y < matrix.length - 1 && matrix[y + 1][x] > 0) {\n      count++;\n    }\n    return count;\n  }\n\n  function step(uint256[5][10] memory prev)\n    internal\n    pure\n    returns (uint256[5][10] memory)\n  {\n    uint256[5][10] memory next;\n    uint256 size = prev.length;\n\n    for (uint256 y = 0; y < size; y++) {\n      uint256[5] memory row;\n      next[y] = row;\n      if (y == 0 || y == size - 1) continue;\n      row[0] = 0;\n\n      for (uint256 x = 1; x < row.length; x++) {\n        uint256 n = countNeighbors(prev, x, y);\n        row[x] = prev[y][x] == 0 ? (n <= 1 ? 1 : 0) : n == 2 || n == 3 ? 1 : 0;\n      }\n    }\n    return next;\n  }\n\n  function withdraw(address sendTo) public onlyOwner {\n    uint256 balance = address(this).balance;\n    payable(sendTo).transfer(balance);\n  }\n\n  function updateSigner(address signer) public onlyOwner {\n    SIGNER = signer;\n  }\n\n  function updatePricePerMint(uint256 price) public onlyOwner {\n    PRICE_PER_MINT = price;\n  }\n\n  function setGenerationString(bytes calldata str) public onlyOwner {}\n}\n",
  "sourcePath": "/Users/seanpapanikolas/Projects/pixelglyphs/contracts/PixelGlyphs.sol",
  "compiler": {
    "name": "solc",
    "version": "0.8.0+commit.c7dfd78e.Emscripten.clang"
  },
  "schemaVersion": "3.4.1",
  "updatedAt": "2021-07-18T13:08:55.851Z",
  "networkType": "ethereum",
  "devdoc": {
    "kind": "dev",
    "methods": {
      "approve(address,uint256)": {
        "details": "See {IERC721-approve}."
      },
      "balanceOf(address)": {
        "details": "See {IERC721-balanceOf}."
      },
      "getApproved(uint256)": {
        "details": "See {IERC721-getApproved}."
      },
      "isApprovedForAll(address,address)": {
        "details": "See {IERC721-isApprovedForAll}."
      },
      "name()": {
        "details": "See {IERC721Metadata-name}."
      },
      "owner()": {
        "details": "Returns the address of the current owner."
      },
      "ownerOf(uint256)": {
        "details": "See {IERC721-ownerOf}."
      },
      "renounceOwnership()": {
        "details": "Leaves the contract without owner. It will not be possible to call `onlyOwner` functions anymore. Can only be called by the current owner. NOTE: Renouncing ownership will leave the contract without an owner, thereby removing any functionality that is only available to the owner."
      },
      "safeTransferFrom(address,address,uint256)": {
        "details": "See {IERC721-safeTransferFrom}."
      },
      "safeTransferFrom(address,address,uint256,bytes)": {
        "details": "See {IERC721-safeTransferFrom}."
      },
      "setApprovalForAll(address,bool)": {
        "details": "See {IERC721-setApprovalForAll}."
      },
      "supportsInterface(bytes4)": {
        "details": "See {IERC165-supportsInterface}."
      },
      "symbol()": {
        "details": "See {IERC721Metadata-symbol}."
      },
      "tokenByIndex(uint256)": {
        "details": "See {IERC721Enumerable-tokenByIndex}."
      },
      "tokenOfOwnerByIndex(address,uint256)": {
        "details": "See {IERC721Enumerable-tokenOfOwnerByIndex}."
      },
      "tokenURI(uint256)": {
        "details": "See {IERC721Metadata-tokenURI}."
      },
      "totalSupply()": {
        "details": "See {IERC721Enumerable-totalSupply}."
      },
      "transferFrom(address,address,uint256)": {
        "details": "See {IERC721-transferFrom}."
      },
      "transferOwnership(address)": {
        "details": "Transfers ownership of the contract to a new account (`newOwner`). Can only be called by the current owner."
      }
    },
    "version": 1
  },
  "userdoc": {
    "kind": "user",
    "methods": {},
    "notice": "PPPPPPPPPPPPPPPPP     iiii                                      lllllll                    lllllll                                            hhhhhhh                               P::::::::::::::::P   i::::i                                     l:::::l                    l:::::l                                            h:::::h                               P::::::PPPPPP:::::P   iiii                                      l:::::l                    l:::::l                                            h:::::h                               PP:::::P     P:::::P                                            l:::::l                    l:::::l                                            h:::::h                               P::::P     P:::::Piiiiiii xxxxxxx      xxxxxxx eeeeeeeeeeee    l::::l    ggggggggg   gggggl::::lyyyyyyy           yyyyyyyppppp   ppppppppp   h::::h hhhhh           ssssssssss    P::::P     P:::::Pi:::::i  x:::::x    x:::::xee::::::::::::ee  l::::l   g:::::::::ggg::::gl::::l y:::::y         y:::::y p::::ppp:::::::::p  h::::hh:::::hhh      ss::::::::::s   P::::PPPPPP:::::P  i::::i   x:::::x  x:::::xe::::::eeeee:::::eel::::l  g:::::::::::::::::gl::::l  y:::::y       y:::::y  p:::::::::::::::::p h::::::::::::::hh  ss:::::::::::::s  P:::::::::::::PP   i::::i    x:::::xx:::::xe::::::e     e:::::el::::l g::::::ggggg::::::ggl::::l   y:::::y     y:::::y   pp::::::ppppp::::::ph:::::::hhh::::::h s::::::ssss:::::s P::::PPPPPPPPP     i::::i     x::::::::::x e:::::::eeeee::::::el::::l g:::::g     g:::::g l::::l    y:::::y   y:::::y     p:::::p     p:::::ph::::::h   h::::::h s:::::s  ssssss  P::::P             i::::i      x::::::::x  e:::::::::::::::::e l::::l g:::::g     g:::::g l::::l     y:::::y y:::::y      p:::::p     p:::::ph:::::h     h:::::h   s::::::s       P::::P             i::::i      x::::::::x  e::::::eeeeeeeeeee  l::::l g:::::g     g:::::g l::::l      y:::::y:::::y       p:::::p     p:::::ph:::::h     h:::::h      s::::::s    P::::P             i::::i     x::::::::::x e:::::::e           l::::l g::::::g    g:::::g l::::l       y:::::::::y        p:::::p    p::::::ph:::::h     h:::::hssssss   s:::::s  PP::::::PP          i::::::i   x:::::xx:::::xe::::::::e         l::::::lg:::::::ggggg:::::gl::::::l       y:::::::y         p:::::ppppp:::::::ph:::::h     h:::::hs:::::ssss::::::s P::::::::P          i::::::i  x:::::x  x:::::xe::::::::eeeeeeee l::::::l g::::::::::::::::gl::::::l        y:::::y          p::::::::::::::::p h:::::h     h:::::hs::::::::::::::s  P::::::::P          i::::::i x:::::x    x:::::xee:::::::::::::e l::::::l  gg::::::::::::::gl::::::l       y:::::y           p::::::::::::::pp  h:::::h     h:::::h s:::::::::::ss   PPPPPPPPPP          iiiiiiiixxxxxxx      xxxxxxx eeeeeeeeeeeeee llllllll    gggggggg::::::gllllllll      y:::::y            p::::::pppppppp    hhhhhhh     hhhhhhh  sssssssssss     g:::::g             y:::::y             p:::::p                                                 gggggg      g:::::g            y:::::y              p:::::p                                                 g:::::gg   gg:::::g           y:::::y              p:::::::p                                                g::::::ggg:::::::g          y:::::y               p:::::::p                                                gg:::::::::::::g          yyyyyyy                p:::::::p                                                ggg::::::ggg                                   ppppppppp                                                gggggg                                                                                               ################################################################################ ################################################################################ ################################################################################ ################################################################################ ################################################################################ ################################################################################ ##############################((((((((((((((((((((############################## ##############################((((((((((((((((((((############################## ####################((((((((((####################((((((((((#################### ####################((((((((((####################((((((((((#################### ###############(((((#####(((((####################(((((#####(((((############### ###############(((((#####(((((####################(((((#####(((((############### ###############(((((##########(((((##########(((((##########(((((############### ###############(((((##########(((((##########(((((##########(((((############### ###############(((((##########(((((##########(((((##########(((((############### ###############(((((##########(((((##########(((((##########(((((############### ####################((((((((((####################((((((((((#################### ####################((((((((((####################((((((((((#################### ###############(((((##########((((((((((((((((((((##########(((((############### ###############(((((##########((((((((((((((((((((##########(((((############### ###############(((((###############((((((((((###############(((((############### ###############(((((###############((((((((((###############(((((############### ####################(((((((((((((((##########(((((((((((((((#################### ####################(((((((((((((((##########(((((((((((((((#################### ###################################((((((((((################################### ###################################((((((((((################################### ################################################################################ ################################################################################ ################################################################################ ################################################################################ ################################################################################ ################################################################################ 10,000 on-chain avatar NFTs created using a cellular automaton.  A cellular automaton consists of a regular grid of cells, each in one of a finite number of states,  such as on and off. The grid can be in any finite number of dimensions. For each cell, a set of cells  called its neighborhood is defined relative to the specified cell. An initial state (time t = 0) is  selected by assigning a state for each cell. A new generation is created (advancing t by 1), according  to some fixed rule (generally, a mathematical function) that determines the new state of each cell in terms  of the current state of the cell and the states of the cells in its neighborhood. Typically, the rule  for updating the state of cells is the same for each cell and does not change over time, and is  applied to the whole grid simultaneously. https://pixelglyphs.io",
    "version": 1
  },
  "db": {
    "callBytecode": {
      "id": "0xa82da774e35f3ecabc85bfd13a53b62ab50402ac9e99bbf912ba6963de050f9e"
    },
    "createBytecode": {
      "id": "0xe53a81ca422aee124a53dce94f753a8ab0abc63fd2b8b70f4e7bf045679f7fe4"
    },
    "contract": {
      "id": "0xd3c1df1ef4534a3038b92c1e1dbd4b64e4eacbad9cef9807dfc8c71f71acd80f"
    }
  }
}